:020000040800F2
:1000000048C00020259D0208459302084793020836
:10001000499302084B9302084D9302088DC50208CC
:100020000000000000000000000000004F930208E4
:1000300051930208000000005393020855930208F0
:1000400091C5020895C502085993020899C502088E
:100050009DC50208A1C50208A5C50208A9C50208D8
:10006000ADC502085F930208B1C50208B5C5020814
:10007000B9C50208BDC50208C1C50208C5C5020848
:10008000C9C502080D94020813940208CDC50208E0
:10009000D1C50208D5C50208D9C50208DDC50208C8
:1000A00019940208E1C50208E5C50208E9C502087D
:1000B000EDC502087F93020885930208F1C5020886
:1000C000F5C50208F9C50208FDC5020801C6020807
:1000D00005C6020809C602080DC6020811C60208B4
:1000E00015C6020819C602081DC6020821C6020864
:1000F00025C6020829C602088B9302082DC60208ED
:1001000031C6020835C6020839C602083DC60208D3
:1001100041C6020845C6020849C602084DC6020883
:1001200051C6020855C6020859C602085DC6020833
:1001300061C60208AD93020865C6020869C60208D6
:100140006DC6020871C602089193020875C60208BE
:1001500079C602087DC6020881C6020885C6020863
:1001600038B5040001D1012032BD04F1840568686E
:1001700018B900F019F800F01CF800F00CF808B1FC
:1001800000F030F800F02BF8012803D0216800F0CF
:100190002CF816E032BD2420686020680168490808
:1001A00049000160A06A704700212970204600F0D4
:1001B000BFBAE86B10B9DFF85812E963E96B204663
:1001C0000847886000F004F8BDE8324000F05EBCEB
:1001D0002168086840F0010008602046704720460A
:1001E00000F0D4BA204600F0EEBB486820F49040FE
:1001F00048602168886820F02A00704738B50400FC
:1002000001D1012032BD04F18405242068602068FA
:10021000002301684908490001602068002103604B
:1002200022680020516021688860286C10B9DFF8CE
:10023000E4112964296C204688470020E8600021E9
:100240006960A860E1662067297032BD10B5034679
:1002500003F15404606B20283CD109B1100001D196
:10026000012010BD1965228062800021616200209A
:10027000E063212161632069B0F1005F986815D1C6
:10028000B0F5805F04BF1869002819BFDFF8940437
:100290006062DFF8941461621A6800F0ADF841F40E
:1002A000000100F023FAF7D1002010BDB0F5805F07
:1002B00004BF1869002807BFDFF870146162DFF817
:1002C000B804606200F00EFD42F0800200F09CF87D
:1002D000F8D1E9E7022010BD38B50346D3F88C0009
:1002E00020280AD109B1100001D1012032BD00F04F
:1002F00065F8BDE8384000F071BC022032BD38B569
:10030000044604F15405686B1346202854D1002993
:1003100045D0100043D021652A806A800021E9631E
:1003200021206863A86A00283BD0DFF850140166DA
:10033000A96ADFF84C044866A96ADFF848048866B1
:10034000A96A00F0D4FC02BF206900285300A86A03
:100350009BB290F85020110616D5406F00281CBFA4
:100360000068002817D08360AA6A206D536F19684F
:10037000C860A96A22684B6F02F128001A681061F0
:10038000A86A01F005F805E0216801F12802216D55
:1003900001F065F928B11020E8632021696301208C
:1003A00032BD20684021016200F01EF841F080015A
:1003B00000F09CF9F8D132BD022032BD0024DC6689
:1003C0001C68DFF8C40384420CD065682C0209D590
:1003D000186850E8005F044645F0806544E8005026
:1003E0000028F5D118467047226802F1080151E84B
:1003F000001F083270472A6802F1080151E8001F07
:100400000832704742F4807241E8002000287047AB
:10041000298B0008778C00082DE9F0410546D5F8B6
:1004200000C0DCF81C2040F60F0760460668DCF8C8
:10043000083005F15C0406F0200002F020013A4289
:100440000DD1002913D010B9D80040F19880A169CE
:10045000002900F040812846BDE8F0410847DFF858
:1004600004793B4204BFDFF800E916EA0E0F00F002
:1004700086805FEAC27E48BF5FEAC65809D54FF062
:10048000010ECCF820E0D4F834C04CF0010CC4F8D4
:1004900034C05FEA827C48BF5FEAC3780BD5D5F8E9
:1004A00000E04FF0020CCEF820C0D4F834C04CF07D
:1004B000040CC4F834C05FEA427C48BF5FEAC378EA
:1004C0000BD5D5F800E04FF0040CCEF820C0D4F8DE
:1004D00034C04CF0020CC4F834C05FEA027C0CD586
:1004E000002808BF3B4208D0D5F800C00827CCF848
:1004F0002070676B47F008076763120509D577011D
:1005000007D52A684FF400661662666B46F020062F
:100510006663626B002A31D031B108B9D80003D5C7
:10052000A16909B128468847606B29688A68510625
:1005300002D410F0280F1CD0284600F0F8FB2968E0
:100540008868430610D500F0D5F8606A60B1DFF81E
:100550001C18C166606A01F0FFF800280ED0606ABE
:10056000C16EBDE8F04108472846A26CBDE8F041E5
:100570001047A16C2846884700206063ABE02069E3
:10058000012876D1D10674D5F00672D51021CCF8A9
:1005900020102A689068410633D5616A0868806C2B
:1005A00080B20028EAD022889042E7DA6080086DA5
:1005B00081281ED0296851E8001F2A6821F4807123
:1005C00000F094F8F6D100F088F800F0B4FAFAD10F
:1005D00000F083F800F1080200F086F8F8D120203E
:1005E00020630021216100F092F8FCD1606A01F0E3
:1005F0006DF80220606121886088091A89B2284656
:1006000033E0218862886088891A00281CBF88B27C
:10061000002860D02A46106850E8005F034625F4A1
:10062000907543E800500028F5D1136803F10800E5
:1006300050E8006FDFF864030833064043E80060C9
:100640000028F2D12023236320610023A3611068D6
:1006500050E8005F034625F0100543E800500028ED
:10066000F5D10220606189B21046226EBDE8F041EA
:100670001047100609D5310601D4180205D5E169E5
:1006800049B32846BDE8F0410847500611D5710628
:100690000FD5286850E8001F024600F025F8F8D171
:1006A0002020E0620021E1612846E26BBDE8F041D4
:1006B0001047110206D5700004D52846E16DBDE84B
:1006C000F0410847D00148BF002E04D52846A16D4F
:1006D000BDE8F0410847BDE8F081296801F1080351
:1006E00053E8001F2868704721F0400142E80010DD
:1006F000002870472A6802F1080151E8001F0832FB
:1007000021F0400142E800100028F3D1704728682A
:1007100050E8002F014622F0100241E80020002896
:1007200070470000C90E0008290F0008710E00086C
:10073000DFF8683940F8943FDFF86429DFF864197E
:1007400042608160DFF86029DFF86019C2600161F2
:10075000DFF85C29DFF85C1942618161DFF8582914
:10076000DFF85819C2610162DFF85429DFF8541923
:100770004262816270470000470E00089F0D00082A
:10078000CF0D0008E50D000800240046F8B5054629
:100790002A68DFF8340900241368A968034028692F
:1007A0000B4369690343E8690B43034313605168D2
:1007B000E86821F4405101435160DFF8E019AB696A
:1007C0008A421CBF286A03439668DFF8D409DFF821
:1007D000D4E9064033439360D36A686A70A61B0964
:1007E00040EA0313DFF8EC09DFF8EC79D3624FF449
:1007F000004372453AD13F6807F00307032F5AD8E8
:10080000DFE807F0025350564FF0010CE9694FF64C
:10081000F077B1F5004F40F08D80BCF1000F0FD0A4
:10082000BCF1010F00F07E80BCF1040F0CD0BCF1D4
:10083000080F00F07A80BCF1100F00F07980A2E080
:1008400001F0E0FB002810D000F0B6F84A0802EBF7
:100850004002B2FBF1F0A0F11001B942EFD2074023
:10086000C0F3420007432868C7608DE0DFF86CC919
:1008700062450CD13F6817F00C0706D0042F14D046
:10088000082F0FD00C2F13D015E0A446BEE78A42E4
:1008900011D1BF6807F00307032F0CD8DFE807F07A
:1008A000190502084FF0040C07E04FF0080C04E0B3
:1008B0004FF0100C01E04FF0200C8A42A6D1BCF1A1
:1008C000040F0AD0BCF1080F15D0BCF1100F15D0E1
:1008D00059E001F0A5FB002856D0696A36F81120CE
:1008E000B0FBF2F66A6802EB42018E424BD313036F
:1008F000B34205D247E001F066FBECE71846ECE7AF
:100900005008002110EB0620DFF8847951EB1661C6
:10091000002301F005FCA0F54076BE4233D22968E1
:10092000C86031E001F073FB8CE701F04CFB89E714
:10093000184689E7BCF1000F0CD0BCF1010F1AD0AA
:10094000BCF1040F09D0BCF1080F17D0BCF1100F97
:1009500017D018E001F056FBB0B100F02DF800EB15
:100960005100B0FBF1F0A0F11001B9420BD22A689E
:1009700080B2D06008E001F04AFBEDE701F023FB14
:10098000EAE71846E9E7012405F1680001210023A0
:1009900041800180C36003612046F2BDFEFFFFEF8E
:1009A000010002000400060008000A000C0010000C
:1009B00020004000800000016A6A696836F8123041
:1009C000B0FBF3F0704790F82820110706D50268B5
:1009D0005368816B23F400430B43536090F8282045
:1009E000D10706D502685368C16A23F400330B436C
:1009F000536090F82820910706D502685368016B70
:100A000023F480330B43536090F828104A0706D52F
:100A100002685368416B23F480230B43536090F8C2
:100A20002820D10606D502689368C16B23F4805351
:100A30000B43936090F828108A0606D503689A68DD
:100A4000016C22F400520A439A6090F82820510663
:100A500010D502685368416C23F480130B43536034
:100A6000436CB3F5801F05D15368816C23F4C00338
:100A70000B43536090F82820110606D50268516890
:100A8000C06C21F40021014351607047F8B5044661
:100A900004F184050020E86001F05AFC2168064654
:100AA0006FF07E470868020716D50097334600228C
:100AB0004FF40011204600F046F868B1206850E875
:100AC000001F024621F08001FFF710FEF6D1202022
:100AD00068600021297022E020680268510720D553
:100AE0000097334600224FF48001204600F02BF897
:100AF000B8B1206850E8001F024621F49071FFF75A
:100B0000F5FDF6D1216801F1080353E8001F2068C4
:100B100000F011F8F6D12020A86000222A700320EE
:100B2000F2BD202169602020A8600021E16600203C
:100B300020672970F2BD4908490000F1080242E827
:100B40000010002870472DE9F04105460E469046FA
:100B50001F46069C2968C8693040B0420CBF01217D
:100B60000021414538D114F1010FF3D001F0F0FB21
:100B7000C01B844200D314B90320BDE8F0812A6869
:100B800011684807E6D5802E18BF402EE2D01146E6
:100B9000C869010704D41046C1690805DAD50DE01B
:100BA0002968082228460A6200F0C1F805F184008D
:100BB0000821C160002202700120DEE74FF40061CD
:100BC00010460162284600F0B2F805F184002022A8
:100BD000C26000210170CFE70020CEE770B5034668
:100BE000996503F15C010A804A8000208861986859
:100BF000FF24B0F5805F04D1186980B940F2FF147A
:100C00000DE018B9186950B17F200BE0B0F1805F9A
:100C100007D1186910B97F258D8004E03F248C80AE
:100C200001E00020888000244C63222008631C68B7
:100C300004F1080656E8004F186800F1080544F072
:100C4000010445E800400028F1D18868B0F1005F58
:100C500026D18889824223D39A68B2F5805F04BF87
:100C60001869002803D10FF279548C6109E00FF262
:100C70007D428A61186920B100F034F8FFF7C2FBA9
:100C8000FAD1196801F1080454E8001F186800F14E
:100C9000080241F08051FFF729FDF2D1002070BD1C
:100CA0009868B0F5805F04BF186900280CD10FF276
:100CB00029328A61186850E8002F014642F020026C
:100CC000FFF7A2FBF6D1E9E70FF2BD228A611869AE
:100CD0000028EFD000F006F842F49072FFF794FB82
:100CE000F8D1DBE71A6852E8002F19687047002036
:100CF000C866A068B0F5805F7047016851E8003FA2
:100D00000A4623F0C00342E800310029F5D1036808
:100D100003F1080252E8002F083322F4000243E8EE
:100D200000210029F3D12021C0F88810704710B5A8
:100D300000F01EF8FCD1026802F1080151E8004FF2
:100D4000DFF83C1608320C4042E800410029F2D19D
:100D5000C26E00F017F82021C0F88C100022C26685
:100D6000426710BD0100001020010004330E00088E
:100D7000016851E8003F0A4623F4907342E80031CD
:100D800000297047012A09D1016851E8003F0A464D
:100D900023F0100342E800310029F5D170470146E5
:100DA0000A6DC86D812A0FD00021A0F85610036883
:100DB00003F1080252E8002F083322F0800243E8D2
:100DC00000210029F3D174E0D0F898100847C06DD5
:100DD000D0F8941008470000516CBDE81040084757
:100DE00000000000F8B5C46D04F1880528686E683D
:100DF000216804F156078A68110606D5212804D116
:100E0000002038802046FFF778FF22689168480666
:100E100006D5222E04D1002038812046FFF787FF17
:100E2000A86840F01000A8602046E969BDE8F440D9
:100E30000847C06D0023002200F156010B810A8093
:100E4000D0F8A4100847D0F8881021290FD1B0F8A5
:100E5000561001B923E0036D01681A788A62026DA9
:100E6000511C0165B0F85620511EA0F8561070476D
:100E7000D0F88810212911D1B0F8561001B90EE030
:100E8000036D01681A88C2F308028A62026D911C20
:100E90000165B0F85620511EA0F85610704703683F
:100EA00053E8003F026823F0800342E80031002944
:100EB000F5D1016851E8003F0A4643F0400342E89B
:100EC00000310029F5D17047D0F88810212900D0D1
:100ED000704730B500F15602938A0DE00168CD6984
:100EE0002C0608D5056D2C788C62016D4D1C0565AE
:100EF0001488611E11805B1E99B239B111880029D6
:100F0000ECD100F004F800F034F8FCD130BD0368F7
:100F100003F1080252E8002F083322F4000243E8EC
:100F200000210029F3D17047D0F88810212900D082
:100F3000704730B500F15602938A0FE00168CD6921
:100F40002C060AD5056D2C88C4F308048C62016D4B
:100F50008D1C05651488611E11805B1E99B239B124
:100F600011880029EAD1FFF7D2FF00F002F8FCD186
:100F700030BD016851E8003F0A4643F0400342E8B3
:100F8000003100297047000010B500F048F81BD16F
:100F90004B6A9188846D0B402370816D4B1C00F06F
:100FA00044F813D100F048F800F05DF80BD10023AD
:100FB000136100F08BF8FCD10168CC69E30644BFF3
:100FC00010240C628CE007E700F001F810BD88697E
:100FD00040F008008861704710B500F020F81BD180
:100FE0004B6A9188846D0B402380816D8B1C00F0CF
:100FF0001CF813D100F020F800F035F80BD10023D5
:10100000136100F063F8FCD10168CC69E30644BFCA
:1010100010240C6264E0DFE6FFF7D9FF10BD00F199
:101020005C020168136B222B7047836551884B1E4D
:101030005380518800297047046854E8004F0368C2
:1010400024F4907443E800410029F5D1046804F1C8
:10105000080353E8003F08345B085B0044E80031B4
:101060000029F3D1704720211163002494610023EB
:101070005361036849498B420CD05B68190209D55A
:10108000036853E8003F046823F0806344E80031BC
:101090000029F5D11169012970470000434B000870
:1010A000E33E00086755000873540008335C0008ED
:1010B0007B620008B7680008637C00086F8E000838
:1010C000F78F00084B8E0008F369FFCF016851E8E5
:1010D000003F0C4623F0100344E80031002970471C
:1010E0001188126EBDE81040104700002DE9F8434A
:1010F00000F00EF94BD1B88988B9788800284AD019
:10110000B989884247DA00F0D7F8FCD19D48B86128
:1011100000F0ECF8FCD13EE0796C20468847B00640
:10112000EBD500F0D5F80170A16D4A1C00F0BBF8BA
:1011300017D0F20748BF5FEAC95100F0ABF803D5FA
:10114000EA0701D500F0DCF8700703D5EA0701D5FE
:1011500000F0C4F8786B20B1B96C204688470020B5
:10116000786378880028DAD100F01EF8FCD100F00E
:1011700025F8FCD100F0EAF8CED100F0D7F844BF52
:101180001021016239883A6E20469047C7E781698D
:1011900041F008018161BDE8F183000000240046B0
:1011A000FFF4FF1100380140226852E8002F216847
:1011B00022F4807241E8002000287047216801F184
:1011C000080050E8003F6E480831034041E8003015
:1011D000002870470024F400E00C02460044004060
:1011E0002DE9F84300F094F84BD1B88988B9788894
:1011F00000284AD0B989884247DA00F05DF8FCD16E
:101200006148B86100F072F8FCD13EE0796C20468C
:101210008847B006EBD500F05BF80180A16D8A1C11
:1012200000F041F817D0F20748BF5FEAC95100F05B
:1012300031F803D5EA0701D500F062F8700703D54D
:10124000EA0701D500F04AF8786B20B1B96C204666
:1012500088470020786378880028DAD1FFF7A4FF58
:10126000FCD1FFF7ABFFFCD100F070F8CED100F05D
:101270005DF844BF1021016239883A6E20469047DC
:10128000C7E7816941F008018161BDE8F183000091
:1012900000FD0F0005D501220262786B40F00100CD
:1012A0007863B0077047A2657988481E7880206807
:1012B000C66916F0070F7047226802F1080353E869
:1012C000001F083221F0805142E8001000287047CA
:1012D0002168496AA06D08EA01017047216804206D
:1012E0000862786B40F0020078637047216851E82B
:1012F000001F226841F0200142E8001000287047DA
:10130000206802210162796B41F004017963704722
:101310000446206804F15C07B7F80480C6690146FA
:10132000D1F800908568396B222970470021396116
:10133000206850E8001F024621F0100142E800102A
:101340000028F5D12068C169CA0670472021396399
:10135000B8610021796121680C4881420CD049684C
:101360000A0209D5206850E8001F024621F080617A
:1013700042E800100028F5D13869012870470000C4
:10138000FEFFFFEF890F0008D90F00080024004678
:1013900038B504001EBF04F14C05A86A002839D0F6
:1013A000297A22685269012903D002292ED1D1035A
:1013B0002CD52A7A012A22D12978012901D10220AB
:1013C00032BD00F029F801612068416941F4BA4159
:1013D0004161A86920B12168486940F40070486102
:1013E000686A20B12168486940F400504861A86AE1
:1013F00000226946006800F02AF800F018F820681A
:10140000416941F001014161002032BD4020E860A6
:1014100000212970012032BD01232B7002222A7283
:10142000022101730020E860A86A00217047AA6ABF
:1014300020681168090C09040160A96A4FF6FC7064
:1014400023680A68009902400A43DA67704709B1C5
:10145000024808600AB1052010607047000001F8DA
:101460002DE9F84F044600F073FF0646BCB104F1C5
:101470004C0500212970022028722168486940F03B
:101480000600486121684A69D0070AD500F060FF6C
:10149000801B0628F6D31021E96003202872012062
:1014A00074E04A69206ADFF8E89022F443020243BC
:1014B0004A616269E0692169A66902430A432168B9
:1014C0001643344A344BDFF8D4A0DFF8D4B0DFF849
:1014D000D4C0DFF8D4E0DFF8D480494518BF4145D7
:1014E0000BD0714518BF614507D0594518BF51450C
:1014F00003D0994218BF91420ED1A76AE06A7F1EBD
:101500003F05064307F07C7747EA0600666A761EC9
:10151000360106F47C760643086C00F08020064312
:101520000E642179A06801F03F010843216B01435B
:10153000E068B0F5806F13D12068484518BF40457A
:101540000BD0704518BF604507D0584518BF5045AF
:1015500003D0984218BF904207D141F4806104E063
:10156000B0F5007F08BF41F40071236810485A6C41
:1015700002401143596422680021002091642168CF
:10158000C867626B01216A60E8602972BDE8F28F6A
:1015900050000240D003024050030240D0020240FB
:1015A00050020240D001024050010240D0000240EF
:1015B000C031E03C70B5044600F0CAFE0646ACB14E
:1015C00020684169050B2D0341F006014161216846
:1015D0004869C1070CD500F0BBFE801B0628F6D376
:1015E00004F14C001022C26003210172012070BD81
:1015F0002368002200211A602068416121680020D0
:101600000A642268002150642068002281642168F5
:101610000020CA642268002110652068C1676A68DA
:10162000206801215038C00900F01F0081408A4322
:101630006A6020684FF4FE410022C16004F14C0151
:1016400008694A618A61CA610A624A628A6200B1B3
:101650000A6100204860CA6008720A7070BD70B5E7
:1016600004002AD004F14C052878012801D1022079
:1016700070BD01262E70287A01281AD102262E72FA
:101680000020E860204600F05EF92168486940F4D7
:10169000BA404861A86920B12168486940F40070E7
:1016A0004861686A20B12168486940F40050486187
:1016B00005E04021E96000202870012070BD21680C
:1016C000486940F001004861002070BD70B50446D3
:1016D00000F03EFE06462CB304F14C05287A0228A1
:1016E00002D02021E9601BE02168486940F0040035
:1016F00048610521297220680269910414D400F020
:1017000027FE801B0628F6D3E868032140F010006E
:10171000E86029722879010602D5A96A01200873B8
:1017200000202870012070BD4169042241F00201AF
:1017300041612A7220684FF4FE410122C1602A7281
:101740002979080605D5A86A0121017322680021BC
:1017500091640020287070BD30B100F154010A7806
:10176000022A03D0202048600120704704220A701A
:101770000168486940F4005040F0040048610020CE
:10178000704738B504462068020B1203D268A0F1F6
:101790005001C90901F01F01CA40D10740F1A780DB
:1017A000026904F14C05510509D54269530506D576
:1017B0004FF48061C160E86840F00100E860206893
:1017C00001690A0509D541690A0506D54FF400618A
:1017D000C160E86840F00200E86020680169CA045E
:1017E00009D54169CA0406D54FF48051C160E86843
:1017F00040F00400E860206801694A0409D54169A5
:101800004A0406D54FF48041C160E86840F0080002
:10181000E86020680269910509D54269910506D5FD
:101820004FF40072C260A96909B120468847206858
:101830000269910426D543699A0423D54FF40051D7
:10184000C160287A042817D12168486920F4005023
:101850004861216800F055F805D5AA6A01200021E9
:1018600010732068816400212970296A00293ED004
:101870002046BDE83440084705202872696A09B14E
:101880002046884721680869C2051FD54869C205F6
:101890001CD5287902060BD5C86F002804BF886CB8
:1018A000002809D101212972A96A0120087303E0E7
:1018B000886C08B901222A7220684FF44071002216
:1018C000C16069692A7009B120468847E86870B12B
:1018D0002068416941F0020141610120287200F055
:1018E00007F8E96919B12046BDE83440084731BD21
:1018F0002979080602D5A86A0121017300212970FF
:101900007047486940F00200486101212972287936
:101910000106704708B90120704703680122180BBF
:10192000503BDB0903F01F0300039A40CB0608D5A8
:1019300001F01101112941680CBF0A4321EA02029A
:1019400042600020704710B50068846C63F30F0498
:1019500084644FF4FE43C360C164026510BDF0B4FB
:101960000246106895681318506803EB5004C007CE
:1019700048BF4D44A3422DD013F8016B16F003006D
:1019800004BF13F8010BC01C31090F2907D113F84C
:10199000011B0F3103E013F8017B05F8017B401EAA
:1019A000F9D10029E6D013F8010BC6F38107032F04
:1019B00008BF13F8017B00EB0720404228440026B3
:1019C000B71E8F421EBF10F8017B05F8017B761C05
:1019D000F6D1CFE7F0BC02F10C0070472DE9F84FCB
:1019E00004003FD0DFF8EC76FD69D7F82880217835
:1019F00005F00C0508F00308C80728D5082D04D009
:101A00000C2D08BFB8F1030F4FD16068002829D012
:101A1000082D1CD13968A068012221F488110143E6
:101A200041F4803139603868DFF8C416000D00F0E9
:101A300001008240B1FBF2F3DFF8AC16DFF8AC2610
:101A40000B60106800F08AFC002840F0C981217802
:101A5000880710D525B10C2D08BFB8F1020F47D16A
:101A60002069002800F0BC813969606921F4F8110F
:101A700041EA004139612178DFF878A6DFF878661D
:101A8000080740F1B48000F0DCF952D400F0D1F93D
:101A90008146DAF80000C1074BD400F059FCA0EBF6
:101AA00009000328F5D3032071E1606888B13A6822
:101AB000A16822F488121043084300F0B3F90646E7
:101AC0003A689003C3D400F043FC801B6528F7D329
:101AD000E9E7386820F4881000F0A4F90646396870
:101AE0008803B4D500F034FC801B6528F7D3DAE70F
:101AF000206978B1396841F48071396000F028FCC0
:101B0000064639684805AFD400F022FC801B032844
:101B1000F7D3C8E7386820F4807000F083F90646F0
:101B200039684805A7D500F013FC801B0328F7D3BC
:101B3000B9E7D6F85CB0A069002841D040011BD5B8
:101B4000E1690BF08050814211D05FEA0B110ED594
:101B50002BF0806B00F069F98146F16D080106D524
:101B600000F0F6FBA0EB09001528F6D39BE7E1692E
:101B70002BF0805041EA000BA06940EA0B0B00F00B
:101B800054F90090A169F06D10EA410F06D100F000
:101B9000DFFB0099401A1528F4D384E781F010592F
:101BA0002BEA090B00F041F98346F06D10EA490F6A
:101BB00016D000F0CDFBA0EB0B001528F5D372E793
:101BC0002BF0105B00F031F98146F06D10F0904F72
:101BD00006D000F0BDFBA0EB09001528F5D362E7A5
:101BE000B8F1000F03D0316821F004013160207892
:101BF000420761D500F025F90DD400F01AF98146AD
:101C0000DAF80010C80706D400F0A2FBA0EB090028
:101C10000328F5D347E7E06841F2893928B3F16D2D
:101C200021F080010843F06500F092FB8246F06DE0
:101C3000810705D400F08CFB00F0F0F8F7D332E711
:101C4000217B080608D5F16D08052ED400F080FB35
:101C500000F0E4F8F7D326E7F16D080525D500F08C
:101C600077FB00F0DBF8F7D31DE7F06D20F0810083
:101C7000F065F06D20F00400F06500F069FB82462D
:101C8000F16D880705D500F063FB00F0C7F8F7D3C6
:101C900009E7F16D080608D5F16D080505D500F0D6
:101CA00057FB00F0BBF8F7D3FDE6B8F1000F03D007
:101CB000306820F004003060206A002866D00C2DC7
:101CC00067D00228386820F0807038604DD100F06D
:101CD0003FFB06463D6800F03BFB801B0328E3D238
:101CE000A801F7D4616A032906D12D0DDFF800049D
:101CF00005F00105E84001E0DFF8E803A26ADFF83B
:101D0000FC33B0FBF2F098422CBF0C250025BB6AD7
:101D1000DFF8EC03521E034019430D4345EA022548
:101D200045F48025BD62E06A216B401E491E40EAF1
:101D30004120616B491E40EA0140A16B491E40EA07
:101D400001607863E06B08B100F061F8386840F03A
:101D5000807000F067F804463868810116D400F0FE
:101D6000F7FA001B0328F7D39DE600F0F1FA0446CA
:101D70003968880105D500F0EBFA001B0328F7D37A
:101D800091E6B96ADFF87C030140B9620020BDE842
:101D9000F28F012824D0BB6A786B626A03F00301DA
:101DA000914201BFC3F30221491CA26A914217D19B
:101DB000E26AC0F30801491C914201BFC0F3462109
:101DC000491C226B91420BD1626BC0F30641491C46
:101DD000914201BFC0F30660401CA16B884201D054
:101DE0000120D4E7B96BE06BC1F3CC018842CDD0C0
:101DF000B86A20F01000B86200F0AAFA054600F0B8
:101E0000A7FA401BFBD0E06B00F001F8BEE7C00072
:101E1000B863B86A40F01000B8627047A0EB0A00DF
:101E200048457047386000F093BAC6F85CB000F0DF
:101E30008FBADAF8000040F00100CAF8000000F0A4
:101E400087BA31684FF0000848070AD431684FF06C
:101E5000010841F004013160306800F00400009096
:101E60000099DAF80000C10770472DE9F04104003D
:101E7000884634D0DFF89052296801F00F014145BF
:101E800006D200F09AF82A6802F00F02424526D1E5
:101E90002178880609D5DFF848221368A069E1692E
:101EA00023F0170303430B4313602278DFF82472F7
:101EB000D00742D53868616803290CD1810168D503
:101EC000F86900F00C000C280CD0B86A012161F30D
:101ED0001550B86206E0022902D1800302D458E00E
:101EE000420556D5F9696068890840EA8101F961BF
:101EF00000F02EFA06466068F96901F00C01B1EBBA
:101F0000800F08D000F024FA801B41F2893188420A
:101F1000F1D303204FE003280FD1B86A20F48010DA
:101F2000B86200F015FA0646B96A480205D400F016
:101F30000FFA801B0B28F7D3EBE73A6A21680020E1
:101F40008B0704D5D208D000A268024301204B07BA
:101F500004D522F07000E26802430120090705D58C
:101F6000206922F4E06242EA001200E000B13A6225
:101F70002078C10644BF60697862296801F00F01CA
:101F8000884508D200F019F8296801F00F01414591
:101F900001D001200FE000F016F83A6A5B49524B7D
:101FA00002F00702895CC840186050480068BDE82C
:101FB000F04100F0D3B9BDE8F0812868000948EA93
:101FC0000010286070474349C86910F00C0001D127
:101FD00044487047082818BF00F036B809684448DC
:101FE000090D01F00101C840704780B5FFF7EBFF14
:101FF000474A1268454902F007028B5C3A4AD840CA
:10200000106002BD80B5FFF7F0FF414B0CE080B5DA
:10201000FFF7EBFF3E4B1A683E49C2F3022207E08E
:1020200080B5FFF7E2FF3C4B1A683A49C2F302124F
:10203000895CC84002BD10EE100A491CB0FBF1F0EB
:1020400010BD3648046807E010B5FFF7FAFFBCEE94
:10205000C00AC4F30661EEE71E48416BC1F30801F4
:10206000491C00EE101A816AB8EE400AC1F3022240
:10207000521C00EE902AB8EE601ACA0643BF826B6B
:10208000C2F3CC0200EE902ADFED110A01F0030149
:10209000F8EE600A022902D0032903D00DE0DFED3B
:1020A0000E1A0CE001681248090D01F00101C84048
:1020B00001EE900AF8EE611A01E0DFED051AC1EEBB
:1020C000811A9FED061A00EE810A21EE800A704700
:1020D00000000000000C02460024744B0000003990
:1020E000000E02460024F400EC4C0020984C002026
:1020F0000048E80128080246940C024601127A00C2
:10210000E0F8FFFFFCFFF8FF00200240388E0008D7
:10211000200C024678C40208240C0246340C024605
:10212000BBBBE1B1B2F5803F80F07E80022A1ED9B0
:102130008C46B1FBF2F102FB11C31B0443EA1043CE
:10214000B3FBF2FC02FB1C3380B240EA0343B3FB57
:10215000F2F002FB103240EA0C4000237047022AE2
:1021600005D98446B0FBF2F002FB10C270474AB1B9
:1021700005D100F0010249085FEA300070470022F3
:102180000023704700F036B90B0002000021002048
:102190007047904271EB030CF6D3B3F5803F2FD21A
:1021A000F0B5B3FA83F7B1FA81F4A7F10F0E3D1B36
:1021B0005340CEF1200602FA0EF2F3415340B5F13E
:1021C0000F0746D80F3C2C444140C4F12006A040E4
:1021D000F1414140B1FBF3F603FB1611A2FB0645AA
:1021E000001BA94102D2761E8018594180EA0102E3
:1021F00021FA0EF362FA0EF200215A403046F0BD89
:1022000030B4B1FBF3FC03FB1C11A2FB0C45001B1B
:10221000A94103D2ACF1010C8018594130BC0246EF
:102220000B46604600217047B2F1807F65D3F0B560
:10223000B2FA82F7B1FA81F4C7F10F063D1B22FA18
:1022400006F307F1110EF24120355A40B5F10F07A0
:10225000B8D94140C4F12006A040F1414140B1FB52
:10226000F3FC03FB1C11A2FB0C45001BA94103D28C
:10227000BCF1010C801859410F2F12D30F3FC90335
:1022800041EA5041B1FBF3F603FB1611A2FB0645F0
:10229000D4EBC030A94102D2761E8018594146EADB
:1022A000CC3C07B34140C7F12006B840F141414062
:1022B000B1FBF3F603FB1611A2FB0645001BA94177
:1022C00002D2761E8018594180EA010221FA0EF3EB
:1022D000C7F1200462FA0EF20CFA07F05A402CFA09
:1022E00004F13043F0BD80EA010221FA0EF300212F
:1022F00062FA0EF260465A40F0BD8C46B1FBF2F134
:1023000002FB11C31B0243EA1063B3FBF2FC02FBA6
:102310001C331B024CEA002043EA1063B3FBF2FCBF
:1023200002FB1C331B024CEA002043EA1063B3FBA0
:10233000F2FC02FB1C331B024CEA002043EA106350
:10234000B3FBF2FC02FB1C324CEA00200023704776
:1023500001484068704700BF904C0020F8B5044623
:10236000204D28780021002831D01F4A12681F4FC5
:102370003E68730704D54FF47A71B1FBF0F020E0AA
:102380001B4B1B6813F440030ED0B3F5800F12D023
:10239000B3F5000F01BF4FF47A71B1FBF0F14FF4C8
:1023A0000040B0FBF1F10EE04FF4FA51B1FBF0F157
:1023B000B2FBF1F107E04FF47A73B3FBF0F04FF4A6
:1023C000FA42B2FBF0F1084600F070F808B10120C3
:1023D000F2BD002221464FF0FF3000F023F8AC6040
:1023E0000020F2BD904C0020EC4C002010E000E0FA
:1023F000E00C024670478268521C8260426832B12B
:1024000003685A1C026019704168491E4160704798
:102410004A490A6860F30A2240F2FA5060F31F4208
:102420000A60704770B5454C23680124C3F302234A
:10243000C3F10705052D2FBF0F26C3F1070604FAC8
:1024400006F6761E1D1D072D34BF0023DB1E31400E
:10245000994004FA03F35B1E1A4011430A0101007C
:1024600002D4374B5A5470BD364801F00F01014475
:1024700001F8042C70BD0000010007D4012200F017
:102480001F018A40304B400943F82020704701006B
:102490000BD4012200F01F018A402C4B400943F865
:1024A0002020BFF34F8FBFF36F8F7047401EB0F1F6
:1024B000807F07D22649486000238B600A6842F07B
:1024C00003020A60B0F1807F8041C043C00F7047B3
:1024D000010007D4012200F01F018A401D4B400972
:1024E00043F82020704700001B49194A042824D8CB
:1024F000DFE800F008101A230300116841F004011E
:1025000011607047106820F0040010600A6822F41F
:10251000400207E01068012320F0040010600A6800
:1025200063F397520A607047106820F0040010604F
:102530000868022262F39750086070470CED00E0D3
:1025400000E400E018ED00E000E100E080E100E0E0
:1025500010E000E000E200E0E00C024640F0200065
:1025600070472DE9F14FB0B0924604910DF1420150
:102570003A9A2B9199464A7000200AE01AF8011BFA
:102580000498309A90470028049000F043860D98F4
:10259000401C0D909AF8000050B12528EED1002281
:1025A00000210792089109920A910B920C9104E084
:1025B0000D9800F031BE41F001011AF8010F2028FA
:1025C000F9D023280CD02B2804D02D2805D0302872
:1025D00009D00BE041F00201EFE741F00401ECE724
:1025E00041F00801E9E741F01001E6E72A280FD1A0
:1025F000D9F8002052F8040BC9F8002000280F90E9
:1026000003D540420F9041F004010AF1010A14E0A1
:102610000F92DFF80C0C0AE00F9C844205DA04EB01
:10262000840302EB4302303A0F920AF1010A9AF84E
:102630000020A2F130030A2BEED39AF800202E2AB4
:1026400003D04FF0FF300E9029E01AF8010F2A282E
:1026500009D1D9F8002052F8040BC9F800200E90D7
:102660000AF1010A1BE02D280CBF0AF1010A002023
:1026700000220E92DFF8A85B0BE040B90E9BAB4244
:1026800005DA03EB830402EB4402303A0E920AF1BE
:10269000010A9AF80020A2F130030A2BEDD3ADF81D
:1026A00040100FF680309AF8001000F0C3FE08B119
:1026B0001AF8010B8DF842009DF84200682805D1F8
:1026C0009AF8001068290CD1622006E06C2804BF3B
:1026D0009AF800106C2904D171208DF842000AF19B
:1026E000010A12AA06921AF801BBBBF125002CD0F0
:1026F0001C3800F09781001F022840F293811338A4
:1027000000F0BA84093800F08D81801E00F04F85FA
:10271000401E00F0FC84401E022840F28381001F0E
:1027200000F0F584401F00F0F280401E00F0A48409
:10273000401E00F0DA80C01E0ED0801E00F09C8487
:10274000C01E00F0998400F03DBD012225210792B2
:102750008DF8481000F042BDD9F8000050F8044B45
:10276000C9F80000002C059440F0AB802B99487804
:10277000002800F0A1804FF0FF340FF6B02000F0E9
:102780006BFE241A40F0468500F028BD01236A46FE
:1027900002A9304600F00CFE002840F03B85641E84
:1027A000F4D13096079C12AE74B1309F16F8011B1D
:1027B0000498B8470028049000F02C850D98401C20
:1027C000641E0D90F2D130970A9C3021002C8DF8B8
:1027D00000100CDD309E01236A4602A9304600F04D
:1027E000E7FD002840F01685641EF4D13096059E62
:1027F000089C74B1309F16F8011B0498B847002854
:10280000049000F007850D98401C641E0D90F2D1D5
:1028100030970B9C3021002C8DF800100CDD309E81
:1028200001236A4602A9304600F0C2FD002840F0AC
:10283000F184641EF4D1309605980899099C4618D5
:1028400074B1309F16F8011B0498B8470028049013
:1028500000F0E0840D98401C641E0D90F2D130977A
:102860000C9C3021002C8DF800100CDD309E0123D3
:102870006A4602A9304600F09BFD002840F0CA8459
:10288000641EF4D130969DF8400041077FF582AE7A
:102890002020002D8DF800007FF77CAE309C0123B6
:1028A0006A4602A9204600F083FD002840F0B28469
:1028B0006D1EF4D130946DE60FF65430059000F0A3
:1028C0008DBC0E9D002D04D5204600F0E5FD04468C
:1028D00008E02A460021204600F0E8FD002814BF49
:1028E000041B2C46089400F079BCD9F8001051F86C
:1028F000040BC9F8001020F00002002121F0FF3382
:10290000CDE9022312AC0594782100F04CBC2B9940
:10291000487820B14FF0FF340FF6C4202FE79DF820
:102920004200622860D0682817D06A283FD06C28FF
:1029300006D0712847D074282CD07A281DD062E0A8
:10294000D9F8001051F8040BC9F80010002866D11E
:102950004FF0FF340FF6A02011E7D9F8001051F81E
:10296000040BC9F8001020B94FF0FF340FF688208F
:1029700005E70D99018000F031BCD9F8001051F83D
:10298000040BC9F80010002849D14FF0FF340FF6AE
:102990006820F4E6D9F8001051F8040BC9F80010CB
:1029A00000283CD14FF0FF340FF64C20E7E6D9F871
:1029B000001051F8040BC9F8001080B94FF0FF3433
:1029C0000FF63420DBE6D9F8001051F8040BC9F8F3
:1029D000001020B94FF0FF340FF61C20CFE60D9AFF
:1029E000D317C0E90023F9E3D9F8001051F8040B1C
:1029F000C9F8001020B94FF0FF340FF6FC10BEE606
:102A00000D990170EAE3D9F8001051F8040BC9F8E8
:102A1000001020B94FF0FF340FF6DC10AFE60D992F
:102A20000160DBE39DF842004C2807BFD9F8001095
:102A3000CA1DD9F80000C21D22F00702C9F8002003
:102A4000D2E900010832C9F80020CDE90201C80F1F
:102A500002D007982D210AE0BDF84010880702D562
:102A600007982B2103E0C80705D50798202112AA53
:102A70001154401C079012A807994BF0200300EB5B
:102A8000010CDDE90201CDE92C01612BCDF814C068
:102A900021AC0BD00E98002848BF062105D404BFF6
:102AA0004BF02000672801D101210E91DDE902677A
:102AB0007B0043EAD6735A15DB174FF0FF30834291
:102AC00008BF824210D13F0347EA16573603002F52
:102AD00008BF002E08D0ABF1610503211A2D089123
:102AE00018D30FF6341110E0DDE902014A00521547
:102AF00012F1010F11D108030FD1ABF161050321D0
:102B00001A2D08911FD30FF618110322604600F00A
:102B1000F9FC63E30FF6FC01F7E7DDE902016A4621
:102B200000F04AFDCDE902014BF02000612811D1EF
:102B3000059830220270811C0591BBF1610F0CBF1A
:102B40007821582102E00FF6D401DEE741700798A2
:102B5000801C0790DDE9020120F0000231F0004303
:102B600008BF002A02D10026002542E14BF02008D0
:102B7000B8F1610F40F093800E98002847BF2121E3
:102B80000191401C0190019EDDE92C01761C002280
:102B90000023DDE9024500F047FD38BF85F0004520
:102BA00000988DF88420001F002E00900DF18507FD
:102BB00032DD204629460022002300F04FFD2BD2B3
:102BC0001C2200F065FD04460D4600F003FEF61FD2
:102BD000002E804609DD00F01DFE02460B46204611
:102BE000294600F0E3FE04460D46F81D0721B8F122
:102BF000000F0CDD491E5EBF08F00F0200F8012D2A
:102C00004FEA2818F3D502E0002200F8012D491EF2
:102C1000FAD5C71D002ECCDC0DF185003F1A0198B6
:102C20000DF185043E468742C8BF0646002E2FD4CC
:102C3000BE4206DA0DF18500815D0829A8BF0F208C
:102C400000DA0020324621A98D1800E0761E15F822
:102C50000139521E8342F9D00F2804D10DF18501AC
:102C6000885C401C8854002A04D50098001D21ACC3
:102C7000761C0090701E0BD421180B783033DAB21A
:102C80003A2AA4BF5B443A3B401E01F80139F4D50F
:102C90000E99002940F1AC80701E0E90A8E00099BA
:102CA000DFF8FC2647F29750414391FBF2F2009285
:102CB000DDE92C45C2F10702002A25F0004504DDBC
:102CC0002046294600F049FB0BE052420020DFF885
:102CD000D41600F042FB02460B462046294600F07F
:102CE000DBFE04460D46B8F1660F06BF009E0A36AD
:102CF00006260E983618142EC8BF142630208DF8DC
:102D000084000DF18507002E34DD2046294600F0B1
:102D1000E9FF01460A4607F1080C04200A27B2FB26
:102D2000F7FE0EEB8E03A2EB430230320CF8012CBF
:102D30000A22BEFBF2F202EB8203AEEB4303303316
:102D4000401E0CF8023DE9D1083E002E0CF10807A8
:102D5000D9DD084600F0DAFF02460B462046294638
:102D600000F024FE0022DFF8403600F0DDFF0446CC
:102D70000D46CAE70DF185003F1A0DF1850404E008
:102D80000098401E7F1E0090641C20783028F7D0E9
:102D9000B8F1660F02D1009E761C04E0B8F1650F11
:102DA0000CBF012600260E983618B742B8BF7E1E0B
:102DB000002E1DD4BE4204DAA05D3428C8BF3920DD
:102DC00000DC30203246611E8D1800E0761E15F8BA
:102DD0000179521E8742F9D0392802D1A05C401CEB
:102DE000A054002A04D50098401C0C46761C009084
:102DF000009D01F06FF8406A0778DDF8388030B246
:102E0000002802DC01260FF21C644BF0200066282B
:102E100008BF6D1C16D0672845D128B210F1040FE9
:102E200047DB404545DA9DF840106D1C080703D488
:102E300030B24045D8BF804628B2B8EB000848BF42
:102E40004FF000080FFA85FBBBF1000F00F3B380D1
:102E50000898411C0891302205990A54B8F1000FD6
:102E600003DC9DF84010080704D50898411C089120
:102E700005990F5418EB0B0FB8BFC8F100052DB220
:102E80006842454432B20B909542B8BF2E46059B2E
:102E9000089836B2099632462146184400F032FBB3
:102EA000AD1B0C95D1E0BBF1610F17D14FF0700B4A
:102EB00019E030B2404504DA9DF840100A0758BFC7
:102EC0008046B8F1010848BF4FF00008BBF1670F1A
:102ED00014BF4FF0450B4FF0650B04E0BBF1410F01
:102EE00008BF4FF0500B0898411C0891B8F1000F33
:102EF000059914F8012B0A5403DC9DF840100807CB
:102F00001AD50898411C0891B8F1000F05990F5483
:102F100012DD761E30B28045B8BF46460598089B44
:102F200032B22146184400F0EDFA089836B2301853
:102F30000890A8EB06000B9005980899014428B268
:102F4000002881F800B003D42B204870891C04E0CD
:102F50002D224A700546891C6D4200202CAA0AE0E9
:102F60002B460A2593FBF5F505EB8504A3EB4403FB
:102F700002F8013B401C2DB2002DF1DC012806DCDB
:102F80004BF02002652A04BF302201F8012B0028F3
:102F90002CAB08D1302001F8010B06E0401E1A5C72
:102FA000303201F8012B0028F8DC059A089810440B
:102FB000091A099149E031B228B281421CDA059B15
:102FC000089832B22146184400F09CFA089936B2AB
:102FD00071180891ABEB0600B8F1000F0B9003DC01
:102FE0009DF84000020704D5059847540999491CEB
:102FF0000991CDF8308028E0059B08982AB2214637
:10300000184400F07FFA0898761B5844B8F1000F76
:10301000089003DC9DF840100A0703D5411C089175
:1030200005990F5430B28045B8BF46460598089BB5
:1030300032B204EB0B01184400F064FA089836B27F
:1030400030180890A8EB06000B909DF8400000F0A7
:103050001400102840F0C280079A08980B99821833
:1030600009988A1882180C980F998018884280F263
:10307000B580081A0A90B1E09DF84200622808D095
:1030800068280ED06A2814D06C281FD0712810D060
:103090001CE0D9F8001051F8040BC9F80010C0B2B8
:1030A0001AE0D9F8001051F8040BC9F8001080B2EA
:1030B00012E0D9F80000C21D22F00702C9F8002072
:1030C000D2E900010832C9F8002006E0D9F8001062
:1030D00051F8040BC9F800100021CDE902019DF858
:1030E000400002075AD5DDE90201002908BF002887
:1030F00054D04BF02002782A50D1079912A83023DF
:103100004354491C4A1C079200F801B046E09DF860
:103110004200622808D068280ED06A2814D06C2893
:103120001FD0712810D01CE0D9F8001051F8040B02
:10313000C9F8001040B21AE0D9F8001051F8040B99
:10314000C9F8001000B212E0D9F80000C21D22F048
:103150000702C9F80020D2E900010832C9F80020AE
:1031600006E0D9F8001051F8040BC9F80010C11797
:10317000CDE90201002902D507982D220AE0BDF809
:103180004000810702D507982B2203E0C00705D530
:103190000798202212A90A54401C079012A80799E8
:1031A00001440591594602A800F04EF816E00120AE
:1031B0000790D9F8001051F8040BC9F800108DF8E9
:1031C00048000BE001222521BBF1000F07928DF88A
:1031D000481003D0022007908DF849B00F9D079842
:1031E0000A992D1A08986D1A0B992D1A09986D1ABB
:1031F0000C992D1A9DF840006D1A41073FF5D2AA8F
:103200002020002D8DF800007FF7CCAA309E2C46A0
:10321000FFF7BCBA4FF0FF3031B0BDE8F08F0000CF
:10322000CBCCCC0C686A6C747A4C00007072696EFE
:1032300074665F733A20626164202573206172674F
:10324000756D656E740000002DE9FE4C06468B46D8
:10325000376958466F2808BF082205D0FFF77EF966
:10326000782814BF0A221022D6E900013C25044622
:103270008A46BBF1640F18BFBBF1690F04D1002966
:1032800002D564426AEB4A0ABAF1000F08BF002C6B
:103290000CD1306B50B9082A3BD196F8381008078A
:1032A00037D530213B2587F83B1032E08DF800B050
:1032B0009346204651465A460023FEF731FF3032EE
:1032C000D0B26D1E3A2801950DDA7A552046514646
:1032D0005A460023FEF724FF04465FEA010A08BFAE
:1032E000002C05D108E09DF800001218513AECE7D7
:1032F000F16878198142DCD3BBF1080F09D196F847
:103300003800010705D5785D302802D06D1E3020C9
:103310007855C5F13C02306BB26179198242F16097
:1033200007DA318F821A4FF6EF700140326231872F
:1033300010E000280ED596F8380000F01400102890
:1033400008D1736B7069316A1B1A5B1A9B1A002BC8
:10335000C8BF336203B0BDE8F08C2DE9D043064608
:103360000F4614464FF00008DFF8409012E0E007E7
:1033700007D542464B463046394600F0D5FC064656
:103380000F464046494642464B4600F0CDFC64108D
:1033900080468946002CEAD130463946BDE8D083C4
:1033A000A08601000000F03F84D797410000244030
:1033B000F8B505460E4617461C4600205CB117F8C6
:1033C000011BB068A847B06030B1F06A401CF062E1
:1033D0000020641EF3D1F2BD4FF0FF30F2BD0000BB
:1033E0007072696E74665F733A20256E206469732B
:1033F000616C6C6F776564007072696E74663A20F8
:1034000062616420256E20617267756D656E74005F
:10341000000000006E616E004E414E00696E660055
:10342000494E46003000FA00960064004B0032001E
:103430001E001400C9B202788A421AB11CBF10F8EB
:10344000012FF9E718BF002070474AF6BC10C2F2FE
:10345000000090F83800704780B500B906A0054913
:103460000B681BB122220021984701E000F036FDD5
:10347000222002BD88AF0020636F6E737472616991
:103480006E742068616E646C65723A2062616420BB
:103490006D6573736167650000F1010310F8011B2E
:1034A00011B110F8011BFBE7C01A7047C9B28307BE
:1034B00006D0521E22D310F8013B9942F7D11FE0EB
:1034C000083A13D302F1040241EA012141EA014121
:1034D00050F8043B121F21BF4B40A3F1013C2CEAE2
:1034E000030C1CF0803FF3D0C9B2001F0832521EFB
:1034F00024BF10F8013B91EA030FF8D818BF012050
:10350000401E704762B38B0708D0521E11F8013B72
:1035100000F8013B00F024808B07F6D1830740F0D0
:10352000208000BF103A07D330B4B1E83810103A09
:10353000A0E83810F9D230BC530724BFB1E8081016
:10354000A0E8081044BF51F8043B40F8043BD20700
:1035500024BF31F8022B20F8022B44BF0B780370F4
:103560007047121F17D35B0009D151F8043B20F8B4
:10357000023B1B0C121F20F8023BF6D20BE051F865
:10358000043B00F8013B1B0A20F8023B1B0C121FF6
:1035900000F8013BF3D238BF121D521E24BF11F8B0
:1035A000013B00F8013BF8D870474AF6BC10C2F264
:1035B000000090F83900704710B5144600F002F88A
:1035C000226010BDC1F30A5343B14A0012F5001F37
:1035D00028D2A3F2FE32A1EB0251704750EA410C0F
:1035E00020D001F0004C31EA0C01B1FA81F204BFA5
:1035F000B0FA80F3D2180B3AB2F120032CBF00FAD4
:1036000003F1914041EA0C013EBFC2F1200C20FAC7
:103610000CF319439040524240F2FD33D21A01EBB1
:10362000035170470022704741EA030C50EA4C0CEA
:1036300052EA0C0C4FF4001C09D307D01CEB410FCD
:103640009CBF1CEB430F8B4208BF824270471CEBB0
:10365000430FFBD8994208BF9042704741EA030CE0
:1036600050EA4C0C52EA0C0C4FF4001C09D307D062
:103670001CEB410F9CBF1CEB430F994208BF9042CB
:1036800070471CEB410FFBD88B4208BF824270474A
:10369000124254D440F2FF7C1CEA11530FD0634510
:1036A00031D09B1863453CBF01EB0251704701F0DC
:1036B000004141EA0C510020AFF30080704750EA0E
:1036C000410320D001F0004C91EA0C011CD0B1FA6A
:1036D00081F30B3B9A420DD9D21A994051EA0C0161
:1036E000C3F1200C20FA0CFC61449840531C40F2BA
:1036F000FF7CD7E7914041EA0C01C2F1200C20FA8F
:103700000CF3194390407047B0FA80F31533202B27
:10371000E0D3202AEED3203A203B9A4209D9D21A8C
:1037200000FA03F141EA0C010020531C40F2FF7C37
:10373000B8E700FA02F141EA0C010020704752425A
:1037400040F2FF7C1CEA11530DD06345DBD0B2EB95
:10375000030C3CBFA1EB025170470CF1010221EABE
:10376000035141F4801150EA410CCCD001F0004CDF
:10377000352A27DC30B481EA0C01B2F1200309DAE2
:10378000C2F12003044601FA03F5D0402843D1409A
:103790009C400CE0C3F12002450020FA03F418BF5E
:1037A00044F0010421FA03F091400C43002174F12C
:1037B000004550F1000051EB0C01244230BC7FF475
:1037C0007BAF70476146002076E760000600F0009E
:1037D000F0006000C1F30A5340F21E42D31A0CDD20
:1037E000CA0283F3070342EA505242F00042DA4031
:1037F00002EBE17282EAE17070476FEAE17203F274
:10380000E13008B182F00040704730000600A000AF
:10381000A000300010F0004160B148BF4042B0FA53
:1038200080F29040D21CC2F5846241EA025202EB5F
:10383000D02140057047D0048901D0047801890166
:10384000841A71EB030604D26E40001BB1411219B9
:1038500073414FF4001C1CEB410F34BF7CEB43065B
:1038600083E00C0DA4EB1356362E00F37C80012E62
:1038700045EAC32341DC43EA525312BFD20292020B
:103880005B08240545EAC12141EA5051D2EBC02032
:10389000994125D407D1B0FA80F610FA06F162D02A
:1038A0000020203608E0B1FA81F6B140C6F12002CE
:1038B00020FA02F21143B0404FEAF474B4EB4654DC
:1038C00034F001064FEA74040AD8D6F50016760DD6
:1038D00004F00044F04061FA06F25040F1404840E4
:1038E000C00A40EA415021F0004128BF5FEA50057C
:1038F00050F1000044EBD12135E0DB0A45EAC1215B
:10390000C90AB6F120050EDD42EA0242120CC5F1E9
:10391000200603FA06F6EB4042EA06056D4298419E
:1039200061F100010DE062FA06F5F240554063FADC
:1039300006FC82EA0C02F3405A406D42904161EB72
:10394000030111F4801F05D1641E620502D06D00D1
:103950004041494121F48011430875F1004350F181
:10396000000041EB045170BC70471CEB410F15D2B5
:1039700023F0004352EA43060BD04FEA4C0CBCEB59
:10398000410F04D80C0D661E342EB7DDEBE7801A0C
:10399000994150EA410608BF0021E4E708BF1CEB4B
:1039A000430F28BF6FF00001DDE7000070B491EA1B
:1039B000030F4FF000457FF543AF6B40841A71EB66
:1039C000030603D2001BB141121973414FF4001CCE
:1039D0001CEB410F34BF7CEB430442E00C0DA4EB25
:1039E0001356352E4FDC45EAC323DB0A45EAC121D5
:1039F000C912B6F120050DDD63FA05F6EB4086EA43
:103A00000305124218BF45F00105C01851F100012D
:103A10000CD213E062FA06F5F2405540F3415A40E9
:103A2000B340F3405A408018594107D349085FEA30
:103A300030005FEA350528BF45F0010501F580112A
:103A4000420875F1004250F1000041EB04514E0074
:103A500016F5001F70BC38BF70470020090D09051E
:103A600070471CEB410F10D252EA43060BD0BCEB5F
:103A7000410F05D80C0DAB43661E342EB6DD02E0B7
:103A8000AB438018594170BC704770BC7047000050
:103A9000280018007A017A01F0B540F2FF7581EA3A
:103AA000030C0CF0004C15EA11541DBF15EA135716
:103AB000AC42AF42E5E0BC41C1F31301C3F31303D1
:103AC000801A994143F4801304D2641E00184941BE
:103AD00080185941C90241EA5051B1FBF3F603FB8A
:103AE0001611A2FB0675D7EBC020A94102D2761EA3
:103AF00080185941C90241EA5051B1FBF3FE03FB62
:103B00001E11A2FB0E75D7EBC020A94103D2AEF166
:103B1000010E80185941890241EA9051760546EA22
:103B20008E2EB1FBF3F603FB1611A2FB0675D7EB45
:103B30008020A94102D2761E80185941C90241EA6B
:103B400050514EEA060EB1FBF3F603FB1611A2FB31
:103B50000675D7EBC020A94102D2761E80185941C4
:103B6000C90241EA5051B1FBF3F703FB1711A2FB65
:103B70000735D3EBC020A94167F100070CBF004215
:103B800047F0010766F3D5274FEA1E31B80814F550
:103B9000806412DDBD0775F1004250EB0E5051EB11
:103BA000045111F5801F5CBF41EA0C01F0BD4CF0DF
:103BB0007F6141F0E0410020F0BDBD076D0840EAA3
:103BC0000E5041F48011D4F10104B4F120060ADA58
:103BD000C4F120060200E04001FA06F3E140184378
:103BE000B24015430EE0342C13DCC6F1200445EA44
:103BF00040056D0820FA06F2154321FA06F0A140AF
:103C00000D43002175F1004250F1000051EB0C0111
:103C1000F0BD00205FEA0C01F0BDCFB992185B4106
:103C2000B3FA83F704BFB2FA82F6BF190B3FB7F1BC
:103C300020062FBF02FA06F3BB40C7F1200622FA86
:103C400006F638BF3343BA401CB1E419641E33E7AB
:103C50007F4231F00041B1FA81F404BFB0FA80F63E
:103C6000A4190B3CB4F120062FBF00FA06F1A140C5
:103C7000C4F1200620FA06F638BF3143A0403C1BB1
:103C80001AE7AC421ABF05EA1357AF4212E050EAF6
:103C900041061CBF52EA4306BFE750EA41073046DF
:103CA00061461CBF41EA0551F0BD52EA430C08BF12
:103CB000C143F0BD00204FF4001616EB410F98BF32
:103CC00016EB430F08BF16EB410F24BFC14305E0BD
:103CD00016EB430F0CBF61464CEA0551F0BD0000E6
:103CE0000C002700400D40F21E4C40EAC120BCEB06
:103CF000115C40F0004003D48CF30701C8407047CA
:103D00006FEAE170704700000000000050B1B0FAA7
:103D100080F18840C91CC1F58461090501EBD021FF
:103D2000400570470146704730B540F2FF7C1CEA01
:103D300011541DBF1CEA1355644565453FE06419E5
:103D400081EA030C6FF35F530CF0004C43F48013D3
:103D5000C90241F0004141EA505EC5021100A5FBD5
:103D6000020200284FF00000EEFB01204FF000019E
:103D7000E3FB052118BF42F0010240180021494130
:103D8000E3FB0E01A4F580640D0302D292184041BA
:103D9000494154F1010470DD450872F1004250F1CF
:103DA000000051EB0451A1F5801102D441EA0C014D
:103DB00030BD40F2FF7E4CEA0E51002030BD0CEACF
:103DC0001355644518BF654581EA030C0CF0004C9F
:103DD00041D050EA410E1CBF52EA430E02E0614658
:103DE000002030BD24422C441BD15FEA050EF6D0E2
:103DF000090302BF01460020AEF1140EB1FA81F5AD
:103E0000AEEB050401FA05FE0C35C5F1200100FA00
:103E100005F5C8404EEA000E6FF35F5343F480137C
:103E20009CE733F00043B3FA83F504BFB2FA82FE95
:103E300075440B3D641BB5F1200E2FBF02FA0EF343
:103E4000AB40C5F1200E22FA0EFE38BF43EA0E0346
:103E5000AA40641C7CE750EA410E14BF52EA430EAC
:103E60006FF000014FF4001515EB430F8EBF19469C
:103E700015EB410F9DE7B4D830BDD4F10104B4F186
:103E800020050FDAC4F12005520828BF42F00102D4
:103E900010FA05FE01FA05F57244E2BFE04028433E
:103EA000E1400FE0352C9ADCC5F1200452EA4002D3
:103EB00020FA05F218BF42F0010231FA05F0A140E4
:103EC0000A43002172F1004250F1000051EB0C0155
:103ED00030BD2E0000487047F04C0020012000F05B
:103EE00001B8704780B5AFF30080024A1100182076
:103EF000ABBEFBE7260002002DE9FE4FDFF86C6B3E
:103F0000317900270025012908BF032002D0009045
:103F100008B90620C5E010F00F0F18BF0720F9D12F
:103F2000DFF84C0B00884FF6FF71884208D0010083
:103F300006D08002410B022909D300F1006001E0A4
:103F40004FF00160009901F58041884201D20820BC
:103F5000A7E0DFF8200B00F0D3FD00281CBF0328EA
:103F60000C20F5D1EFF31080029072B600980FF29A
:103F70001D41316100F178400190282106F11800BF
:103F800000F0DCFDDFF8F08A98F8010098F80010E6
:103F900001FB00F3022900D301D90D207EE008B116
:103FA000022B01D90E2079E006F11800C8F80400B0
:103FB000A94625E0143019E000F075F80028FBD080
:103FC000DFF8B82A0121012000F0D8FDD8F80C0054
:103FD00050B198F800201421D8F804304A439918B9
:103FE000A1F11404A042E5D1D8F80400C8F80800F3
:103FF00098F801007F1CBFB205EB403509F10109BB
:1040000098F800105FFA89F0884244D21420009C8E
:1040100078432C19002106EB000BCBF81840DDF893
:1040200004A0204600F0ACFBAA440028C4D02046DF
:1040300000F0F2FB30B900F036F80028FBD0DFF8D2
:10404000402ABFE7D8F80C4024B90BF11800C8F893
:104050000C00BBE720460268DBF81810497852785C
:104060008A4204D2891AFF2918BF0BF11800C8F838
:104070000C00A04204D100F016F80028FBD0A5E700
:10408000206898F8011000F17840400B00F03EFCE9
:104090000028F5D09AE7012030710020029981F3C1
:1040A0001088BDE8FE8F98F801104FEA5A3000F0F2
:1040B0002DBCF8B59500DFF8B4790F353B792D09A3
:1040C000860810242D010BB9022451E07B79012BC5
:1040D00008BF04244CD008B10F2449E009B91124C9
:1040E00046E011F0030018BF122441D112B3DFF8EB
:1040F000883903EB8613186A00281CBF986A0028C9
:1041000006D0186B00281EBF986B002809242FD1F9
:10411000002603EBC607386A40B1786A5F7800F082
:10412000EBFB7F0305F11000874203D3761C042EBE
:10413000EFD301E013241BE0EFF3108572B65A624F
:104140001962002203EBC201086A58B19E68306808
:1041500006EB820620187060486A80000F30000964
:1041600004EB0014521C042AECD385F310880024BD
:1041700023460FF628120121012000F0FFFC204603
:10418000F2BD2DE9F041DFF8E4683179820800F0F2
:10419000030309B9022441E07179012908BF04240D
:1041A0003CD008B10F2439E0DFF8CC0800EB8214D2
:1041B00004EBC305286A08B910242FE0E06808B9A9
:1041C0000A242BE0EFF3108772B601207071D4F847
:1041D0000C801146D8F8000000F0D2FA20B1D8F8CF
:1041E000000000F019FB08B90B2413E0E16809682E
:1041F0000879002802BF6A6AB1F80500824217D127
:104200001021E3686A6A0024186892000918286A75
:10421000FFF778F90020707187F3108823460FF6B6
:104220009C020121012000F0A9FC2046BDE8F0819C
:10423000C879002802BF6A6A0889824207D1B1F8AA
:10424000051089000F31090909011031D9E7887A71
:10425000002802BF686AB1F80B2090420CD1B1F877
:1042600005000989890080000F310F300909000914
:10427000090101EB0011E8E7487B002802BF686AEA
:10428000CA89904213D10A89B1F80500B1F80B1020
:10429000920080000F320F3012090009120102EB68
:1042A000001089000F31090900EB0111CDE714243A
:1042B000B0E72DE9F84FDFF8B4572A79860800F007
:1042C00003040AB902205EE008B10F205BE0DFF8CA
:1042D000A80700EB861707EBC402106A08B9102084
:1042E00051E00091EFF3108A72B66B694FF0010B49
:1042F0000BFA06F949EA0303DFF888876B61424647
:1043000000F000FBB8780BFA04F308F1240218431C
:10431000B87000F0F7FA009807EB840108618AF39F
:104320001088687970BB00F027FA85F805B080F333
:104330001088304600F007FB022800F01DFA13D168
:104340006A690021697122EA09026A61B970002272
:10435000D4B2521C07EB8403D5B21961042DF7D3F4
:1043600080F3108815200EE000212E706C70A9706B
:10437000BA781201BA7080F31088BB7808F148024D
:1043800000F0C0FA0020BDE8F28F00002DE9F843EC
:10439000DFF8D866B27801278046DFF8DC46DFF820
:1043A000E856032A00F2D281DFE812F004003D0053
:1043B00027017B012A4600F0DBF9DFF8D096B8F13F
:1043C000000F21D1307804F1080180010A58002142
:1043D000136859F8212053F82100824203D1491C67
:1043E0000429F6D308E000F0C7F90321B17080F387
:1043F000108800F0B3F9A5E000F0BEF90021B77015
:10440000B17180F31088E6E005F14C0200F0B0F9DC
:10441000307804F1080106F1080380010C580422E9
:1044200048462168E6E005F1B00200F0A1F9B8F1D4
:10443000000F40F0CC8000F0D9FAB2797378D8B28E
:10444000032834BF5B1C002330785FFA83FC521CC6
:1044500004EB801000EBCC08D8F8200010B9D0B2E3
:104460000428ECD3B271737081F310883078B1797D
:10447000800104290DD2614622180834205802EB2D
:10448000C1056A6A001D50F82110286A06F1080368
:10449000B0E004F108010858006800F0BDF90028F8
:1044A00000F0A4FA06D10320B07081F3108800F068
:1044B00055F947E0307804EB8012D3683364906894
:1044C00092F800C0D2F804E0D060142000FB0CFC8D
:1044D00093680EEB0C00143883420EBF506893684B
:1044E00003F1140090600023D2F80CE00EF1040CEC
:1044F0005CF8230090B17046D2F808E000F104089F
:1045000058F8239000680EF1040CDEF800E0A9EBE7
:10451000000020F0030070444CF823005B1C042BC7
:10452000E2D381F31088306C80B100F025F90221CC
:10453000B17080F310883178601C06F1080289019F
:10454000415C306C006800F17840EAE0307800218E
:1045500000F050FA3278A11C9201885C50B9EFF358
:10456000108272B63178706907FA01F18843706180
:1045700082F310887069002824D0002120FA01F20B
:10458000D30704D4491CCAB2202AF7D317E000F09D
:10459000DFF88646A01C0B069B0CC35C07FA0EFCDA
:1045A00013EA0C0F06D10EF1010E5FFA8EF3042B05
:1045B000F1D301E086F801E0317082F3108805F153
:1045C000FC025BE000F0D8F80021717196E005F57F
:1045D000B67200F0CDF83578717806F10803AD01B8
:1045E00060190834645900EBC100426A251D55F872
:1045F0002110006A00F0EEFA96E005F5E87200F08E
:10460000B7F83078B8F1000F44D1002100F0F2F98A
:104610003178A21C8901505C48B900F0ADF83178BE
:10462000726907FA01F18A43726180F31088706938
:1046300000282BD0002120FA01F2D30704D4491C12
:10464000CAB2202AF7D317E000F082F88646A01CF1
:104650000B069B0CC35C07FA0EFC13EA0C0F06D189
:104660000EF1010E5FFA8EF3042BF1D301E086F810
:1046700001E0317082F3108805F5067200F078F8D9
:10468000307800F060F902282CD14FE000F0AEF94C
:10469000707159E0611C8001095C06F10802306C00
:1046A0003CE005F5217200F063F8B8F1000F28D165
:1046B00000F09CF90020B0700023A01C3278920119
:1046C000855C07FA03F2154204D15B1CDAB2042AB6
:1046D000F4D300E0737081F31088307800F033F980
:1046E000022823D000F048F83178A21CA31C8901CD
:1046F000525C42EA021202F0F0025A5480F310882F
:1047000024E005F5347200F033F83078611C04F1D0
:1047100008038001095C06F1080218580068A0F53A
:104720000050400B00F0A3FA02280FD1307801218D
:1047300000F060F900F05AF9307872690023874080
:1047400022EA07077761737181F31088BDE8F1836E
:10475000EFF3108272B60020B07070473078611CA1
:1047600004F108038001095C185806F1080270473B
:104770000121002000F002BAEFF3108072B67047FA
:10478000F0B503780022FF2B04BF4378FF2B1DD127
:1047900045884FF6FF739D4204BF0479FF2C15D165
:1047A000B0F805509D4204BFC479FF2C0ED1058995
:1047B0009D4204BF847AFF2C08D1B0F80B509D4273
:1047C00001BF447BFF2CC5899D4222D0AA4C04EB3B
:1047D0008117B0F805500389B0F80B407E785D1959
:1047E000C3896519F6025D19AE4212D30479B4EBA0
:1047F000810F02BFC3795B1EB3EB810F09D1837AAE
:104800009B1EB3EB810F01BF407BC01EB0EB810F3D
:1048100001221046F0BD00002DE9FC4707460020AC
:10482000009000BFACA20121002407F11008002570
:10483000002600F0A3F9DFF83CA2B7F80520002A13
:1048400039D06B464146504600F088FB30B9B7F886
:104850000550AD000F352D092D012CE00228ECD0BC
:1048600000F028FDE9E7022818BF00F023FD3A898F
:10487000002A20D000F03BF80028F4D1388918E055
:10488000022818BF00F016FDB7F80B209AB100F00F
:104890002EF80028F4D1B7F80B000AE0022818BF60
:1048A00000F008FDFA8932B100F021F80028F5D1B6
:1048B000F88900F021F8761C05EB0809042E0AD2CD
:1048C000032EFBD8DFE806F006050403F6E7E9E768
:1048D000DAE7CCE7B1E700987988884208BF01247D
:1048E00003466B4A00F00EF82046BDE8F6876B469B
:1048F0004946504600F0E0BC80000F30000905EB4F
:10490000001570470121002000F038B9F8B584B0D7
:104910000024009477A292E8680001AF87E868005D
:104920000290039100F038FD694601A800F0A2FD55
:10493000002802BF009810F1010F012400F03CFD97
:10494000204605B0F0BD2DE9FC41504D002300216B
:1049500000228046002085E80F004749009000248F
:1049600001EB8816434F06E000F0F8FA88B1022800
:1049700018BF00F09FFC06EBC401086A48B100981C
:104980004A6A6B460028096A3846EDD000F094FC6C
:10499000ECE7641C042CEED300F028F8F06818B1A2
:1049A00002685078401C687000984FEA88022A71AB
:1049B0006880706A4FEA88035A1CA5F80500EA71FE
:1049C000F06A9A1CAA722881706BA5F80B00D81C9B
:1049D0006873F06BE88181F31088B0682D4B042276
:1049E0000168284600F0F6F8BDE8F681EFF3108183
:1049F00072B670472DE9F84F83461F4A4FF0000802
:104A000002EB8B14244D01260F4628E008F1040028
:104A100006FA00F911EA090F1DD006FA08F0014262
:104A200019D104EB880ADAF8101061B138468847CA
:104A30005B462A46FFF766FFFFF7D8FF0020CAF85B
:104A4000100081F31088FFF7D1FFA07820EA090059
:104A5000A07081F3108808F101005FFA80F8A17856
:104A600011B1B8F1040FD1D3BDE8F18F04A7002034
:104A7000A007F90BBC4B0020284C002080B0020896
:104A8000B4B0020820A002081C3B020850AE00206F
:104A9000F8C002080CA7002070BF02080D0A534E90
:104AA000564D415F52656769737465722072657413
:104AB00075726E6564202564000000000D0A534E77
:104AC000564D415F526573746F72652072657475DF
:104AD000726E6564202564000D0A5374617274203F
:104AE0006F662043524320636F6D70757461746903
:104AF0006F6E0000020000000000000000000000D7
:104B000038B5040008BF062513D0207A012808BF55
:104B100003250ED000F00AFD05000AD10648816A7F
:104B20000122491C2160A36922726360816200F046
:104B3000FFFC284632BD00BF904B0020002200F051
:104B4000F9BC704730B5204C656AC1B0854213D3BB
:104B500011F1010F0FBF4FF0FF350125481E8540B1
:104B6000246A254208D04FF48071684600F0FCFCAE
:104B700081B2684600F03BFD41B030BD08B400B5DD
:104B800001ABFFF7DFFF5DF808FB000070B50446DE
:104B90000D4600F007FD00BF0CA2D2E900100A4E3E
:104BA0007462C6E90010284600F003F80020B062E5
:104BB00070BD10F1010F0FBF4FF0FF310121401EFA
:104BC0008140014A11627047E8AB00202525255B32
:104BD0005D5C5C252DE9F0410E46DFF85053B1F1E4
:104BE000006F1BD3DFF8484327884FF6FF7C4FF058
:104BF0000164674517BF002FA6464FEA872E0EF1C6
:104C0000006E8E450AD3674517BF002F2746BF02A7
:104C100007F10067144661188F4201D22A4608E066
:104C2000074617F0030008BF16F00F0107D005F183
:104C3000380201210120FFF7A1FF022015E01846EC
:104C400000F02AF9804640B9BA4800228760C66061
:104C500004610271427100F0A2FE434605F1780240
:104C600001210020FFF78AFF4046BDE8F081F8B53A
:104C700006460C46AE4801884FF6FF70814201D0CF
:104C80000B0001D1802301E08B025B0BAA4DB342E4
:104C90000BD3814201D0080001D1802101E08902BB
:104CA000490BA019814200D334B92A4601210120C1
:104CB000FFF764FF0220F2BD104600F0EDF8070098
:104CC00008D19C4801220021466184610271417132
:104CD00000F065FE3B4605F1240201210020FFF7AC
:104CE0004DFF3846F2BD2DE9FC41924E727900200D
:104CF0004FF00008002400900FF219278F4D12B1D9
:104D0000012A48D08BE02A4600F0BFF8307920BB5A
:104D100005F1380200F0B9F840F24C4100F0B0F86B
:104D200007E0B168F06800F08CFE040001D100F0EB
:104D30009BF83069002801DD002CF2D000F03CFB2C
:104D4000306900286EDD05F5157200F0A1F8306AB3
:104D5000394600F0ABFEBDE8F38105F1840200F0B6
:104D600097F841F2040100F08BF8002009E0706927
:104D700000F07EFE28B9B169491EB1617169491C14
:104D80007161B16909B10028F1D000F015FBB0697B
:104D90000028D8D146E005F1D00200F076F8B078CE
:104DA00040B905F5847200F070F8306A394600F0B9
:104DB0007DFEC8E705F5B67200F06AF83079A8B94B
:104DC00005F5DE7200F061F800F0E6FA01E000F0AF
:104DD0004BF83069002805DDB168F06800F031FE5D
:104DE0000028F4D03069002814DC11E005F50272C7
:104DF00000F04EF800F0D0FA706900F039FE28B9E2
:104E0000B069401EB0617069401C7061B06908B93A
:104E10004FF0010800F0D0FA00F08DFEB470B8F148
:104E2000000F90D0EFF3108072B600210022317095
:104E3000727080F31088F16959B10020884708E04A
:104E4000694606F1240000F0DDFE009A0120916819
:104E5000884706F1240000F0AAFE002803D131782B
:104E600070780143ECD076E7F06800F11001B0688B
:104E7000F16000F110013069B160001F30617047CE
:104E800001203162707100F087BA0121FFF776BE10
:104E900001210020FFF772BE70B50446EFF31086C3
:104EA00072B6244DE97829B905F1240000F07CFEA2
:104EB0000122EA7029786878014304D10121012098
:104EC0002970687000E0002086F3108858B9002C23
:104ED0001CBFA068002804D0214605F1240000F082
:104EE0007BFE012070BD002C1CBFA068002807D0ED
:104EF000EFF3108072B6A168E96180F3108806E0D4
:104F0000EFF3108172B60020E86181F31088002071
:104F100070BD000080B501210648817008A2002004
:104F2000FFF72CFEBDE8014000F039BDEC99020806
:104F3000A007F90BBCAB00202CBB0208B857020835
:104F40000D0A464D5F57696E646F77416C6C6F77E1
:104F500065645F43616C6C6261636B002DE9F843CB
:104F60000400884691461E4618BFB8F1000F00D0D5
:104F70000EB9062722E0207A08B904271EE0114D59
:104F80002068A96A814200D308B9052716E000F01D
:104F9000CDFA074690B9696A2068814203D020465D
:104FA00000F048FE38B94A464146284600F0DCFE8B
:104FB0003060606000E0072700F0BAFA3846BDE8CC
:104FC000F28300BF904B002080B500F041FF00F05D
:104FD000F1FB00F014F800F063F800F032F900F093
:104FE00073F800F0A2F800F0B8F800F0A7F800F0AD
:104FF00088F8002000F0EDFB00F0B7FCFCE780B57E
:1050000098B0402108A8FFF799FD20216846FFF7D6
:1050100095FD022000F060FF002000F033FF08B192
:1050200000F048F900F08AFF964A11680120072332
:1050300060F3C40111604FF480324FF48011099283
:105040000A9181224FF480710B920C911022002161
:1050500008930D92109108A8FCF7C0FC08B100F06D
:1050600029F90021022202913F2001924021009063
:10507000002204910392059206920792012168464C
:10508000FCF7F3FE08B100F015F90220FDF72CFA49
:105090000E20FDF763F908B100F00CF919B000BD5E
:1050A00080B592B048216846FFF748FD4FF4802054
:1050B0004FF4004211900092684600F063FF08B17F
:1050C00000F0F8F813B000BD80B56F480168002209
:1050D00041F0010101600068062100F0010000902C
:1050E000009B1D20FDF79EF91D20FDF7C5F900224C
:1050F00005211E20FDF796F91E20BDE80240FDF7B0
:10510000BBB980B56148016841F48071016000203D
:1051100001F072F808B100F0CDF801F07CF800B1B0
:1051200000E001BDBDE80140C4E080B558485949E0
:10513000016001F07BF800B1F4E701BD80B556488D
:10514000564A20210260416001F098F808B100F051
:10515000B1F8BDE8014001F0F3B830B593B01C21BF
:105160006846FFF7EBFC302107A8FFF7E7FC1F219B
:1051700000204B4DA9604B4A28616861A8614FF03F
:10518000804128624FF480742A60E9616C6228468D
:1051900001F0DEF908B100F08DF8002000900390D6
:1051A000049005906946284601F0B2FB08B100F072
:1051B00081F8284601F097FB08B100F07BF8002049
:1051C0004FF07C510E9008900C900D91129401229A
:1051D00007A9284601F00CFA08B100F06BF813B0EB
:1051E00030BD4FF4E13110B500202F4C61600C212F
:1051F00061612E4AA060E0602061A0614FF400412F
:1052000020626062A0622260E1612046FAF7A8FF96
:1052100008B100F04FF80021204601F0B9FB08B1B9
:1052200000F048F80021204601F0BDFB08B100F075
:1052300041F8204601F08CFB10B1BDE8104039E088
:1052400010BD82B01A48026842F002020260016892
:1052500001F002010091009B026842F0010202602D
:10526000016801F001010091009A016841F0040118
:105270000160006800F004000090009802B001F0A6
:10528000E7BB0000F00C0246880C02460408024608
:1052900080AE002000600240F8AD002000080C4203
:1052A0008CAB00200078004630A20020003801407E
:1052B0008C0C024672B6FEE72DE9F84304008846DE
:1052C00091461E4618BFB8F1000F00D00EB9062552
:1052D0002BE0207A08B9042527E0154F2068B96A29
:1052E000814200D308B905251FE000F01FF90546EB
:1052F000D8B9796A2068814205D14A464146384684
:1053000000F01BFD0BE0204600F094FC50B96168F2
:1053100038684A4601614146384600F025FD306054
:10532000606000E0072500F003F92846BDE8F2833D
:10533000904B0020F8B500F021F801D10220F2BD19
:1053400000F023F8010016D124F000400128BC60D1
:105350003146284602D100F060F801E000F064F820
:105360004FF47A7000F033F8384A116824F00044A2
:1053700021EA0404146000223A70F2BD0446344F5E
:1053800038780D46164601287047002001217860C4
:1053900039704FF47A701AE02F490A6A0020002A07
:1053A00000D4704710B52D4B0B602D4A0A600C6A73
:1053B000002C48BF012010BD244A1168012041F093
:1053C000004111601268002A48BF0020704770B584
:1053D0000546FCF7BDFF2E181E4C206810F4403F18
:1053E00008D015F1010FF8D0FCF7B2FFB042F4D3AA
:1053F000032070BD216842F2FA00084006D0144A2A
:105400005168014351602060012070BD2068C107D0
:1054100044BF01202060002070BD10B50B4B1A68FE
:1054200000F020F8042207E010B5084B1A6842F497
:10543000804200F017F8202251F8043B521E40F839
:10544000043BF9D184F3108810BD000028200240ED
:10545000C8AD0020202002400820024023016745FB
:10546000AB89EFCD42F001021A60EFF3108472B6FF
:10547000704770472DE9F0410546DFF8A4402078D9
:105480008846012808BF022034D000F035F801001A
:105490002ED12A68DFF88C60A260296821F00041D3
:1054A000042908D1306840F4803040F004003060B6
:1054B00000F026F814E04FF0FF31C8F800106F68D4
:1054C00000E07F1C6A68A9688A18974208D23846AB
:1054D00000F01AF800F014F80100F2D0C8F80070DB
:1054E00031682A6822F0004242F47E7291433160B2
:1054F00000212170BDE8F081002001216060217051
:105500004FF47A70FFF763BF064B1A6806490A40EA
:1055100042EAC00242F4803242F002021A6070474E
:10552000C8AD00202820024005FCFEFF0020704787
:105530000020704700B500BF13009646944610390E
:1055400028BFA0E80C50FAD85FEA417C28BF0CC005
:1055500048BF40F8042BC90728BF20F8022B48BFDA
:1055600000F8012B00BD70471CB584B000230393E5
:1055700000290EBF01930190491E0291002400945E
:1055800005AB01A9064878441630FCF7EAFF0199FB
:1055900001B10C70002858BF039806B010BD00BFC1
:1055A00057CEFFFF10B5DFF8044218220021204635
:1055B00001F04FFA4FF48052002104F1180001F07D
:1055C00048FADFF8EC2111680FF2DD00BDE8104069
:1055D0000847DFF8DC2191680847401C5354BDF8A8
:1055E0000020521CC2F30B02ADF80020704738B502
:1055F00004460D4600F0C5F86946284600F095F8C7
:1056000010F1010F11D00021684807E0BDF800300B
:10561000625C491C03441A76FFF7E1FFA942F5D307
:1056200000F0B9F800F006F832BD00F0B4F86FF001
:10563000020032BD70B50026EFF3108472B65B4DE8
:10564000E88A58BB00F09DF8698A288A884223D0EE
:10565000AB78012B09D12A882E80101A022283B23E
:105660000BB900222B82AA70A882A8782A8A28B9AE
:105670008A4234BF891AC2F58051A982A81800F164
:10568000180684F3108800F08EF9494BA98ADA686D
:1056900030469047064603E000F07DF884F310881A
:1056A000304670BD0000000038B5EFF3108172B6CF
:1056B0003E4A9378022B03D100209070002304E02F
:1056C000108A938A1B18C3F30B031382538A148A1C
:1056D0009C4223D0D08A012820D19578012D0AD16F
:1056E000108800251580041B0220A5B20DB90020EA
:1056F0001582907094829078148A28B99C4234BFA5
:105700001B1BC4F5805393821019183081F3108845
:10571000918A274BDA68BDE83840104781F310883A
:1057200000F042F9BDE8314035E0F0B54FF0FF320E
:10573000EFF3108372B61D4C258A668AAE4201D003
:10574000B5420ED2C6F58056B7B2B8420AD3A842C7
:1057500013D2668A0125A57026800025268A6582D7
:1057600000E0AE1BB6B2B04207D2628A0A80618AFC
:1057700000224018C0F30B00608283F310881046AB
:10578000F0BDEFF3108272B60848C18A491CC1828D
:1057900082F310887047EFF3108072B60349CB8A0A
:1057A0005A1ECA8280F3108870470000B85000204B
:1057B000ECC3020880B5002200926946002001F087
:1057C0004FF9002812BF0C200098807B00F0F4FCF9
:1057D00001BD7CB5002001F039F979490868794CA0
:1057E00040F40000086001F051F9774800F0ACFB8C
:1057F000D4E90001FFF7CAF901F06CFA01F0D8FA18
:1058000001F088FB01F0D4FD04F1080001F0FCFD7B
:105810006E4A0021402002F037F86D4909884FF6A2
:10582000FF70814201D0080001D16A4803E0C90835
:10583000694800EB4130FEF75FFB684A0021802099
:1058400002F022F8002002F06FF8012002F06CF85C
:10585000022002F069F8012002F09BF80220604C5F
:105860000022012184F84000227084F820100020DA
:1058700002F0A4F80121012002F0A0F80121022089
:1058800002F09CF8574A00214FF4007001F0FCFF31
:10589000554A00214FF4806001F0F6FF534A002181
:1058A0004FF4006001F0F0FF00260FF2790504EBE1
:1058B00046102B46002200900021001D01F0ECF85C
:1058C000761C022EF3D94A4A0021202001F0DCFF89
:1058D00002F024F900F0DDFD464A0021012001F02C
:1058E000D3FF0121012000F097F80021022000F0F1
:1058F00093F80021002000F08FF802F0B3F90121A5
:10590000022000F089F8002001F0A1F8002076BD07
:10591000890002F077BF800002F018BF02F05BBF81
:105920000000000010B50446207802F0C1F820778E
:1059300094F8003033A202215B1C0020FFF71EF90F
:10594000207818B1022809D004D310BD00214FF4EB
:10595000007006E000214FF4806002E000214FF467
:105960000060BDE8104001F09DBF4FF0FF3001F036
:1059700015BF7047704770470021202001F092BF8B
:105980000021012001F08EBF1B4B03601B4A1C4904
:105990004260816070470021402001F083BF0021F8
:1059A000802001F07FBF704770470D4901EB401028
:1059B00000224FF4FA710277001D01F0C2B8000016
:1059C000F40C0246684B0020400000305D77000870
:1059D000A007F90B00C00F0800C0FF07E74C000844
:1059E000E8A50020FF8500082B86000865860008D2
:1059F000517C000805650008115900081759000876
:105A00001D590008427574746F6E202564207072F1
:105A100065737365640A000010B5EFF3108272B607
:105A2000012303FA00F0204B21B1012906D11C68A3
:105A3000204302E0196821EA0000186082F3108810
:105A400010BD0A46184938B50D680124AB0704D5C6
:105A50000D686B0701D5012032BD0D68EB07FCD442
:105A600001460120FFF766FC00B90024204632BD44
:105A70001FB50D490B6801249A0704D50B685A0716
:105A800048BF01200DD40A68D307FCD4022202903B
:105A900001920394694601A8FFF7ECFC00B90024C9
:105AA000204604B010BD000070AF002038B50022C1
:105AB00090B00B003AD0EFF3108372B6394C2578D2
:105AC000012D0EBF01220125257083F310886ABBCA
:105AD00000236160CDE90223CDE9062309928DF808
